:100000008FC00000AAC00000A8C00000A6C0000069
:10001000A4C00000A2C00000A0C000009EC000005C
:100020009CC000009AC0000098C0000096C000006C
:1000300094C0000092C0000090C000008EC000007C
:100040008CC000008AC0000088C0000086C000008C
:1000500084C0000082C0000080C000007EC000009C
:100060007CC000007AC0000078C0000076C00000AC
:1000700074C0000072C0000070C000006EC00000BC
:100080006CC000006AC0000068C0000066C00000CC
:1000900064C0000062C0000060C000005EC00000DC
:1000A0005CC000005AC0000058C0000056C00000EC
:1000B00054C0000052C0000050C000004EC00000FC
:1000C0004CC000004AC0000048C0000046C000000C
:1000D00044C0000042C0000040C000003EC000001C
:1000E0003CC000003AC0000038C0000036C000002C
:1000F00034C0000032C0000030C000002EC000003C
:100100002CC000002AC0000028C0000026C000004B
:1001100024C0000022C0000020C000001EC000005B
:1001200011241FBECFEFD1E4DEBFCDBF12E0A0E0AF
:10013000B2E0E0E9F0E100E00BBF02C007900D92F1
:10014000A436B107D9F724E0A4E6B2E001C01D92BD
:10015000A831B207E1F797D099C752CF59D183E0C0
:100160005ED160E875E280E090E0ABD21F9281E062
:100170008F938FE192E09F938F93C8D482E04FD109
:100180007FD081E090E057D18BD180E092E019D30D
:100190000F900F900F900F900895CF92DF92EF92F3
:1001A000FF920F931F93CF93DF93CDB7DEB72797BF
:1001B0000FB6F894DEBF0FBECDBF1A8219821C8223
:1001C0001B821D82E2D1882309F44BC0CE01059623
:1001D0006C01FE0137967F018E010A5F1F4F9E0161
:1001E0002D5F3F4FAE014F5F5F4F60E884E693E0C5
:1001F000D2D11F928F9386E492E09F938F9386D4FF
:1002000064E672E084E693E0C8D30F2EF4E6EF2EA6
:10021000F2E0FF2EF02DF70180811F928F930EE503
:1002200012E01F930F9372D483E492E09F938F9315
:100230006DD4F70180818F5F80831F928F931F930E
:100240000F9364D464EE72E0C70130D342E050E013
:1002500060E184EE92E036D10FB6F894DEBF0FBEB7
:10026000CDBF27960FB6F894DEBF0FBECDBFDF918E
:10027000CF911F910F91FF90EF90DF90CF90089555
:100280006D98759A08953ED080E090E049D066DF81
:100290000F2EF0E8CF2EFEE3DF2EE12CF12CF02D17
:1002A0007CDF49D0882389F08091E4039091E503B5
:1002B000A091E603B091E70311968093E403909335
:1002C000E503A093E603B093E70340D04091E40335
:1002D0005091E5036091E6037091E7038A019B0169
:1002E000080F191F211D311DC901B801A701960171
:1002F000CCD32093E8033093E9034093EA0350936F
:10030000EB03CECF1092800081E0809381001092A9
:100310008200109285001092840010926F00089560
:10032000CF93DF93EC01EEDFD0938500C093840080
:10033000DF91CF91089596B381E0292F217090FF2E
:1003400080E0222311F091E096BB08958091840013
:100350009091850008958F929F92AF92BF92CF9215
:10036000DF92EF92FF92CF93DF934C01A12CB12C3F
:10037000880C991CAA1CBB1C880C991CAA1CBB1CB1
:10038000880C991CAA1CBB1C880C991CAA1CBB1CA1
:100390008114910481E0A806B10400F175016401A3
:1003A000C4E8D0E0AFDF1982188281E0E81AF108D2
:1003B000C2DF8823E9F3C114D10481E0E806F10427
:1003C00088F781E0A81AB108950144275527A0E0D5
:1003D000B0E07FD3860E971EA81EB91E809490941D
:1003E00091DF9092850080928400A5DF8823E9F355
:1003F000DF91CF91FF90EF90DF90CF90BF90AF90C3
:100400009F908F90089560E074E284EF90E00895EB
:100410006A9A6B9A6C9A729A739A749A0895813058
:1004200011F472980895823011F47398089583300E
:1004300009F4749808950F931F93CF93DF93D82FE7
:10044000C92F09E311E0F801108286E090E083DF14
:1004500081E0F801808380914101811108C088E02A
:10046000809342018EEF91E076DF809141018BE035
:10047000809348018FEF80934F01D093EF03C09397
:10048000F003D0936001C093610110926201109259
:10049000630180914101DF91CF911F910F910895E8
:1004A0008FEF80934F0186E080934201E1E4F1E019
:1004B00080818F718630E1F7ECE4F1E08081806823
:1004C000808308952FEF20934F01209141012F71D8
:1004D000293041F029E020934201E1E4F1E020815C
:1004E0002930E9F72DE0260F2093800120E22093A8
:1004F000810122E22093820121E020938301109266
:1005000084011092850150938601409387011092D7
:100510008801109289012091F00320938A01209193
:10052000EF0320938B01662391F0A82FB92F615020
:1005300070E09B0123573E4FECE8F1E08D918193F1
:10054000E217F307D9F7FB01E357FE4F02C0ECE8CF
:10055000F1E01082118282E080934201EFE4F1E049
:10056000808186FFFDCF8FEF80934F0186E08093DF
:100570004201E1E4F1E080818F718630E1F781E0B2
:100580008093EC0380914101089580914F0183FB9A
:10059000882780F908959F92AF92BF92CF92DF9201
:1005A000EF92FF920F931F93CF93DF9390907B0175
:1005B0007FEF70931002EFE4F1E0708172FFFDCFE6
:1005C000CFE4D1E00F2EF6E4AF2EBB24B394F02D90
:1005D0000DC0F5017081E72FEF71F0E0AE17BF0796
:1005E00044F4D501EC91EF71E0931002A091100258
:1005F000B0E0788173FFEDCF75EF790D671708F4E0
:10060000762FE0918501F0E0FE2FEE2760918601C4
:10061000E62BDA01ED93FC934091890150E0542FD1
:10062000442760918A01462BF90151834083772347
:1006300099F0A82FB92F4FEF470F50E09A01245798
:100640003E4FEBE8F1E091919D93E217F307D9F764
:10065000FA01E457FE4F02C0EBE8F1E0808180939D
:10066000ED03D6018C93809147018093EE03F7014F
:10067000808380914601881F8827881FD8018C932A
:10068000E1E4F1E090819F719630E1F7ECE4F1E074
:1006900080818F7780838081806880838FEF8093D3
:1006A0004F01809141018EEF870FDF91CF911F9114
:1006B0000F91FF90EF90DF90CF90BF90AF909F9001
:1006C00008954F925F926F927F928F929F92AF9216
:1006D000BF92CF92DF92EF92FF922B013C0193DE0B
:1006E0006B017C01689413F8F694E794D794C7944F
:1006F0001694D1F70F2EFAE08F2E912CA12CB12C4D
:10070000F02DC301B201A5019401BFD1C701B6010B
:10071000BCD1CA01B9016B5F7F4F8F4F9F4FA501BD
:100720009401B3D1BA01A90141505109610971097C
:10073000E1ECF0E010821092C00086E08093C200ED
:10074000852F8F708093C5004093C40088E180831B
:10075000E2E1F4E081E192E09383828391838083FC
:100760009583848381E08093F103FF90EF90DF9085
:10077000CF90BF90AF909F908F907F906F905F9041
:100780004F900895E0ECF0E0908195FFFDCF8093CD
:10079000C6000895CF93C82FF5DF8C2F90E0CF913E
:1007A0000895E0ECF0E080818823ECF78091C600AA
:1007B0000895CF93F6DFC82FE5DF8C2F90E0CF911F
:1007C0000895CF93DF9300D000D01F92CDB7DEB74E
:1007D0009D838C838CE391E0FC0180818B831A8262
:1007E00019821DC089819A812C813D81820F931FBE
:1007F000FC01208189819A818E509C4FFC012083CD
:100800008FE391E029813A812E503C4FF9012081FC
:10081000FC01208389819A8101969A838983898149
:100820009A814097FCF28CE391E0FC0110821A82DD
:10083000198209C08EE391E0FC01108289819A81BE
:1008400001969A83898389819A8140979CF38CE3EE
:1008500091E020E8FC01208300008DE391E0FC01A1
:10086000808181708823C9F380E290E074DD1A8270
:1008700019820FC08FE391E0FC01208189819A8168
:100880008E5F9B4FFC01208389819A8101969A8318
:10089000898389819A8140976CF300000F900F90B3
:1008A0000F900F900F90DF91CF910895CF93DF932A
:1008B000CDB7DEB727970FB6F894DEBF0FBECDBF1A
:1008C0009D838C837F836E838CE391E0FC01808128
:1008D0008B831A8219820FC08FE391E029813A81BC
:1008E0002E503C4FF9012081FC01208389819A819F
:1008F00001969A83898389819A8140976CF38CE36E
:1009000091E0FC0110821A82198211C08EE391E0FD
:1009100029813A814C815D81240F351FF9012081A5
:10092000FC01208389819A8101969A838983898138
:100930009A8140975CF38CE391E020E8FC012083EE
:1009400000008DE391E0FC01808181708823C9F370
:100950001A82198211C089819A812E813F81820F6A
:10096000931F2EE331E0F9012081FC01208389816E
:100970009A8101969A83898389819A8140975CF351
:100980008DE391E0FC01808127960FB6F894DEBFDD
:100990000FBECDBFDF91CF910895CF93DF93CDB739
:1009A000DEB727970FB6F894DEBF0FBECDBF9D838D
:1009B0008C837F836E838CE391E0FC0180818B8349
:1009C0001A8219820FC08FE391E029813A812E5F4C
:1009D0003B4FF9012081FC01208389819A81019696
:1009E0009A83898389819A8140976CF38CE391E0A3
:1009F00028E0FC0120831A82198211C08EE391E065
:100A000029813A814C815D81240F351FF9012081B4
:100A1000FC01208389819A8101969A838983898147
:100A20009A8140975CF38CE391E028E8FC012083F5
:100A300000008DE391E0FC01808181708823C9F37F
:100A40001A82198211C089819A812E813F81820F79
:100A5000931F2EE331E0F9012081FC01208389817D
:100A60009A8101969A83898389819A8140975CF360
:100A70008DE391E0FC01808127960FB6F894DEBFEC
:100A80000FBECDBFDF91CF910895A1E21A2EAA1B10
:100A9000BB1BFD010DC0AA1FBB1FEE1FFF1FA2172E
:100AA000B307E407F50720F0A21BB30BE40BF50B2B
:100AB000661F771F881F991F1A9469F760957095B4
:100AC000809590959B01AC01BD01CF010895B7FFC2
:100AD00004C003D0821B930B089509D0A59F900DED
:100AE000B49F900DA49F800D911D11240895A29F85
:100AF000B001B39FC001A39F700D811D1124911DF2
:100B0000B29F700D811D1124911D0895CF93DF9325
:100B1000CDB7DEB7AE014B5F5F4FFA0161917191C6
:100B2000AF01809114049091150403D0DF91CF910F
:100B300008952F923F924F925F926F927F928F9281
:100B40009F92AF92BF92CF92DF92EF92FF920F935C
:100B50001F93CF93DF93CDB7DEB72B970FB6F894E3
:100B6000DEBF0FBECDBF6C017B018A01FC01178285
:100B70001682838181FFBFC1CE0101963C01F6013F
:100B80009381F70193FD859193FF81917F018823E4
:100B900009F4ADC1853239F493FD859193FF8191BC
:100BA0007F01853221F4B60190E0D6D1E8CF912CB7
:100BB000212C312CFFE1F315D8F08B3279F038F489
:100BC000803279F08332A1F4232D20611DC08D3253
:100BD00061F0803369F4232D216016C0832D82607B
:100BE000382EE32DE4603E2E2AC0F32DF8601DC0A0
:100BF00037FC2DC020ED280F2A3040F08E32B9F49A
:100C000036FC75C1232D2064322E19C036FE06C075
:100C10008AE0989E200D1124922E11C0EAE02E9EAB
:100C2000200D1124222EF32DF0623F2E08C08C36A9
:100C300021F4832D8068382E02C0883641F4F701F4
:100C400093FD859193FF81917F018111B3CF982FFF
:100C50009F7D9554933028F40C5F1F4F9FE3998339
:100C60000DC0833631F0833771F0833509F055C0FC
:100C700020C0F801808189830E5F1F4F88248394F0
:100C8000912C530112C02801F2E04F0E511CF801C3
:100C9000A080B18036FE03C0692D70E002C06FEF06
:100CA0007FEFC5014ED14C018201F32DFF773F2E1E
:100CB00015C0280122E0420E511CF801A080B1802D
:100CC00036FE03C0692D70E002C06FEF7FEFC501F3
:100CD0002DD14C01F32DF0683F2E820133FC19C059
:100CE000822D90E088169906A0F4B60180E290E08B
:100CF00033D12A94F5CFF50137FC859137FE8191E8
:100D00005F01B60190E028D121102A9421E0821AD7
:100D100091088114910479F7E1C0843611F0893685
:100D200039F5F80137FE07C06081718182819381B6
:100D30000C5F1F4F08C060817181072E000C880B6B
:100D4000990B0E5F1F4FF32DFF763F2E97FF09C0C3
:100D500090958095709561957F4F8F4F9F4FF0686C
:100D60003F2E2AE030E0A30133D1882E861844C0FC
:100D7000853731F4232D2F7EB22E2AE030E025C0B6
:100D8000932D997FB92E8F36C1F018F4883579F0FC
:100D9000AEC0803719F0883721F0A9C0E92FE06193
:100DA000BE2EB4FE0DC0FB2DF460BF2E09C034FE74
:100DB0000AC0292F2660B22E06C028E030E005C008
:100DC00020E130E002C020E132E0F801B7FE07C0C8
:100DD00060817181828193810C5F1F4F06C06081A9
:100DE000718180E090E00E5F1F4FA301F1D0882E4B
:100DF0008618FB2DFF773F2E36FE0DC0232D2E7F4C
:100E0000A22E891458F434FE0BC032FC09C0832D85
:100E10008E7EA82E05C0B82CA32C03C0B82C01C010
:100E2000B92CA4FE0FC0FE01E80DF11D80818033B6
:100E300021F49A2D997EA92E09C0A2FE06C0B39472
:100E4000B39404C08A2D867809F0B394A3FC10C033
:100E5000A0FE06C0B21480F4280C922C9B180DC082
:100E6000B21458F4B60180E290E076D0B394F8CF93
:100E7000B21418F42B1802C0982C212CA4FE0FC019
:100E8000B60180E390E068D0A2FE16C0A1FC03C0CA
:100E900088E790E002C088E590E0B6010CC08A2D9A
:100EA000867851F0A1FE02C08BE201C080E2A7FC6F
:100EB0008DE2B60190E050D0891430F4B60180E3A1
:100EC00090E04AD09A94F8CF8A94F301E80DF11D8E
:100ED0008081B60190E040D08110F6CF222009F445
:100EE0004ECEB60180E290E037D02A94F7CFF601DB
:100EF0008681978102C08FEF9FEF2B960FB6F894F3
:100F0000DEBF0FBECDBFDF91CF911F910F91FF903C
:100F1000EF90DF90CF90BF90AF909F908F907F9099
:100F20006F905F904F903F902F900895FC01059037
:100F3000615070400110D8F7809590958E0F9F1FDB
:100F40000895FC016150704001900110D8F7809520
:100F500090958E0F9F1F08950F931F93CF93DF934C
:100F6000FB01238121FD03C08FEF9FEF2CC022FFE7
:100F700016C046815781248135814217530744F4B6
:100F8000A081B1819D012F5F3F4F318320838C93DE
:100F9000268137812F5F3F4F3783268314C08B0113
:100FA000EC01FB010084F185E02D0995892BE1F628
:100FB000D80116968D919C911797019617969C9340
:100FC0008E931697CE01DF91CF911F910F910895C7
:100FD000FA01AA27283051F1203181F1E8946F936A
:100FE0006E7F6E5F7F4F8F4F9F4FAF4FB1E03ED010
:100FF000B4E03CD0670F781F891F9A1FA11D680FAE
:10100000791F8A1F911DA11D6A0F711D811D911DE0
:10101000A11D20D009F468943F912AE0269F112455
:101020003019305D3193DEF6CF010895462F4770B9
:10103000405D4193B3E00FD0C9F7F6CF462F4F7014
:10104000405D4A3318F0495D31FD4052419302D072
:10105000A9F7EACFB4E0A695979587957795679518
:10106000BA95C9F700976105710508959B01AC0118
:101070000A2E06945795479537952795BA95C9F73F
:10108000620F731F841F951FA01D0895F894FFCF52
:10109000010101010101010101010101010104013D
:1010A000FF0000000300000000CA03D90300004451
:1010B000656D6F2054582070726F6772616D207279
:1010C000756E6E696E67206F6E206E6F6465202589
:1010D0003034780A0D004563686F20726563656976
:1010E0007665642E204C656E3D25642E20002530EB
:0410F0003278200032
:00000001FF
