:100000008FC00000ABC00000A9C00000A7C0000066
:10001000A5C00000A3C00000A1C000009FC0000058
:100020009DC000009BC0000099C0000097C0000068
:1000300095C0000093C0000091C000008FC0000078
:100040008DC000008BC0000089C0000087C0000088
:1000500085C0000083C0000081C000007FC0000098
:100060007DC000007BC0000079C0000077C00000A8
:1000700075C0000073C0000071C000006FC00000B8
:100080006DC000006BC0000069C0000067C00000C8
:1000900065C0000063C0000061C000005FC00000D8
:1000A0005DC000005BC0000059C0000057C00000E8
:1000B00055C0000053C0000051C000004FC00000F8
:1000C0004DC000004BC0000049C0000047C0000008
:1000D00045C0000043C0000041C000003FC0000018
:1000E0003DC000003BC0000039C0000037C0000028
:1000F00035C0000033C0000031C000002FC0000038
:100100002DC000002BC0000029C0000027C0000047
:1001100025C0000023C0000021C000001FC0000057
:1001200011241FBECFEFD1E4DEBFCDBF13E0A0E0AE
:10013000B2E0E0ECF2E100E00BBF02C007900D92EC
:10014000A038B107D9F724E0A0E8B3E001C01D92C0
:10015000AA3BB207E1F7D7D10C945E0951CF98D2F0
:1001600083E09DD260E875E280E090E0F6D381E222
:1001700092E063D483E09FD282E091D2BAD182E050
:1001800090E0A5D2D9D282E092E075C40895AF92F2
:10019000BF92CF92DF92EF92FF920F931F93CF9374
:1001A000DF93CDB7DEB727970FB6F894DEBF0FBE4B
:1001B000CDBF1A8219821C821B821D821E821F8261
:1001C0008091000290910102892B41F082E073D26C
:1001D00081E065D2109201021092000280918203A8
:1001E00090918303A0918403B09185030196A11D92
:1001F000B11D813A26E8920721E0A207B1054CF42F
:100200008093820390938303A0938403B093850328
:100210002AC01092820310928303109284031092DA
:1002200085038091800390918103892B71F0109256
:1002300081031092800381E03ED289E392E09F9394
:100240008F9347D50F900F900EC081E090E0909370
:1002500081038093800323D28FE392E09F938F9357
:1002600038D50F900F9048D18823F9F0809106047B
:1002700081110DC082E013D285E492E09F938F93A9
:1002800028D581E0809306040F900F900BC082E088
:1002900012D28CE592E09F938F931BD510920604A7
:1002A0000F900F9029D18111FDCF58D2882309F4E6
:1002B0000FC18091060481119AC0CE0107966C018E
:1002C000FE0136967F018E010B5F1F4F9E012D5F51
:1002D0003F4FAE014F5F5F4F60E887E094E044D24C
:1002E000C82E8A818F9389818F938C818F938B8184
:1002F0008F9386E792E09F938F93EBD40F900F90AC
:100300000F900F900F900F90CC20E9F007E014E0D1
:100310008C2D90E09C01295F3B4F69010F2EFAEB79
:10032000EF2EF2E0FF2EF02DF80181918F011F9248
:100330008F93FF92EF92CDD40F900F900F900F906C
:10034000C016D10689F766E873E087E094E008D428
:100350008FEB92E09F938F93BCD406E813E00F2EAF
:10036000F9E8CF2EF3E0DF2EF02D0F900F900F2E37
:10037000F2EDEF2EF2E0FF2EF02DF80181918F01CA
:100380001F928F93FF92EF92A4D40F900F900F9033
:100390000F900C151D0589F780918603803309F0B5
:1003A00097C080918703833609F092C080918803BB
:1003B000833309F08DC089819A810297A1F48B81E2
:1003C0009C81019781F488ED92E09BD48AE093E0D0
:1003D00098D482E064D186E193E09F938F9379D49F
:1003E0000F900F9075C082E293E08BD471C09E0194
:1003F0002A5F3F4FAE014B5F5F4F60E887E094E0BC
:1004000049D2C82E082F10E01F928F938E811F9221
:100410008F938D811F928F9384E493E09F938F93AA
:1004200058D40FB6F894DEBF0FBECDBF101611061C
:100430000CF046C007E014E08C2D90E0FC01E95F71
:10044000FB4F6F0178010F2EF2EDAF2EF2E0BF2EC1
:10045000F02DF70181917F011F928F93BF92AF9290
:1004600038D40F900F900F900F90EC14FD0489F783
:100470001FC0F80181918F0190EE980F9F3518F4FD
:1004800090E03AD403C08EE290E036D40C151D05FE
:1004900081F78FE693E09F938F931BD483E793E0DC
:1004A0009F938F9316D40F900F900F900F9010C0C2
:1004B0008DE793E09F938F930CD40F900F90D9CF3B
:1004C0008DE793E09F938F9304D40F900F90E1CF2B
:1004D00027960FB6F894DEBF0FBECDBFDF91CF9148
:1004E0001F910F91FF90EF90DF90CF90BF90AF9052
:1004F00008956D98759A08958CB185FB882780F9C9
:1005000091E0892708953ED080E090E049D027DE31
:100510000F2EF0E8CF2EFEE3DF2EE12CF12CF02D94
:1005200036DE49D0882389F0809187049091880431
:10053000A0918904B0918A041196809387049093C6
:100540008804A0938904B0938A0440D04091870422
:10055000509188046091890470918A048A019B01FA
:10056000080F191F211D311DC901B801A7019601EE
:100570006FD320938B0430938C0440938D0450935D
:100580008E04CECF1092800081E080938100109283
:100590008200109285001092840010926F000895DE
:1005A000CF93DF93EC01EEDFD0938500C0938400FE
:1005B000DF91CF91089596B381E0292F217090FFAC
:1005C00080E0222311F091E096BB08958091840091
:1005D0009091850008958F929F92AF92BF92CF9293
:1005E000DF92EF92FF92CF93DF934C01A12CB12CBD
:1005F000880C991CAA1CBB1C880C991CAA1CBB1C2F
:10060000880C991CAA1CBB1C880C991CAA1CBB1C1E
:100610008114910481E0A806B10400F17501640120
:10062000C4E8D0E0AFDF1982188281E0E81AF1084F
:10063000C2DF8823E9F3C114D10481E0E806F104A4
:1006400088F781E0A81AB108950144275527A0E052
:10065000B0E022D3860E971EA81EB91E80949094F7
:1006600091DF9092850080928400A5DF8823E9F3D2
:10067000DF91CF91FF90EF90DF90CF90BF90AF9040
:100680009F908F90089560E074E284EF90E0089569
:100690006A9A6B9A6C9A729A739A749A08958130D6
:1006A00011F472980895823011F47398089583308C
:1006B00009F474980895813011F4729A0895823083
:1006C00011F4739A0895833009F4749A08950F937E
:1006D0001F93CF93DF93D82FC92F09E311E0F801BF
:1006E000108286E090E077DF81E0F80180838091DE
:1006F0004101811108C088E0809342018EEF91E0B2
:100700006ADF809141018BE0809348018FEF8093F5
:100710004F01D0939104C0939204D0936001C09391
:100720006101109262011092630180914101DF9199
:10073000CF911F910F9108958FEF80934F0186E025
:1007400080934201E1E4F1E080818F718630E1F72E
:10075000ECE4F1E0808180688083089580914F010E
:1007600083FB882780F908959F92AF92BF92CF9222
:10077000DF92EF92FF920F931F93CF93DF939090AE
:100780007B017FEF70931202EFE4F1E0708172FF62
:10079000FDCFCFE4D1E00F2EF6E4AF2EBB24B3940F
:1007A000F02D0DC0F5017081E72FEF71F0E0AE176D
:1007B000BF0744F4D501EC91EF71E0931202A091D0
:1007C0001202B0E0788173FFEDCF75EF790D6717F6
:1007D00008F4762FE0918501F0E0FE2FEE2760917E
:1007E0008601E62BDA01ED93FC934091890150E0FC
:1007F000542F442760918A01462BF901518340838D
:10080000772399F0A82FB92F4FEF470F50E09A01A7
:1008100024573E4FEBE8F1E091919D93E217F307E7
:10082000D9F7FA01E457FE4F02C0EBE8F1E080810E
:1008300080938F04D6018C9380914701809390041C
:10084000F701808380914601881F8827881FD8017F
:100850008C93E1E4F1E090819F719630E1F7ECE454
:10086000F1E080818F7780838081806880838FEF43
:1008700080934F01809141018EEF870FDF91CF91DF
:100880001F910F91FF90EF90DF90CF90BF90AF90AE
:100890009F900895EF92FF920F931F93CF93DF9352
:1008A000782F790180917B012FEF20931202EFE4E2
:1008B000F1E0308132FFFDCF0FE411E0C6E4D1E07A
:1008C0000AC0E881EF71F0E0AE17BF073CF4288161
:1008D0002F7120931202A0911202B0E0F801308132
:1008E00033FFEFCF8F5F681708F4862F882371F0EE
:1008F000A72FB92F6FEF680F70E06F577E4FE0E8BA
:10090000F1E091919D93E617F707D9F79091470190
:1009100090939004F701908390914601991F992735
:10092000991FFA019083E1E4F1E090819F71963084
:10093000E1F7ECE4F1E090819F77908390819068FB
:1009400090839FEF90934F0190914101DF91CF9160
:100950001F910F91FF90EF9008954F925F926F92C9
:100960007F928F929F92AF92BF92CF92DF92EF923F
:10097000FF922B013C0187DE6B017C01689413F828
:10098000F694E794D794C7941694D1F70F2EFAE013
:100990008F2E912CA12CB12CF02DC301B201A501F9
:1009A000940156D1C701B60153D1CA01B9016B5F99
:1009B0007F4F8F4F9F4FA50194014AD1BA01A901E2
:1009C0004150510961097109E1ECF0E01082109287
:1009D000C00086E08093C200852F8F708093C50091
:1009E0004093C40088E18083E4EBF4E083E192E08B
:1009F00093838283918380839583848381E0809332
:100A00009304FF90EF90DF90CF90BF90AF909F90B6
:100A10008F907F906F905F904F900895E0ECF0E0A2
:100A2000908195FFFDCF8093C6000895CF93C82F86
:100A3000F5DF8C2F90E0CF910895CF93DF93EC01F9
:100A40008881882329F02196E9DF89918111FCCFE3
:100A5000DF91CF910895E0ECF0E080818823ECF7FE
:100A60008091C6000895CF93F6DFC82FD7DF8C2F73
:100A700090E0CF910895CF93DF9300D000D01F92E4
:100A8000CDB7DEB79D838C838CE391E0FC01808140
:100A90008B831A8219821DC089819A812C813D81A4
:100AA000820F931FFC01208189819A818C569B4F74
:100AB000FC0120838FE391E029813A812C563B4F42
:100AC000F9012081FC01208389819A8101969A8312
:100AD000898389819A814097FCF28CE391E0FC0143
:100AE00010821A82198209C08EE391E0FC01108203
:100AF00089819A8101969A83898389819A81409715
:100B00009CF38CE391E020E8FC01208300008DE35E
:100B100091E0FC01808181708823C9F380E290E03C
:100B20005ADD1A8219820FC08FE391E0FC01208107
:100B300089819A818C559B4FFC01208389819A8100
:100B400001969A83898389819A8140976CF300008A
:100B50000F900F900F900F900F90DF91CF9108950D
:100B6000CF93DF93CDB7DEB727970FB6F894DEBFEC
:100B70000FBECDBF9D838C837F836E838CE391E01A
:100B8000FC0180818B831A8219820FC08FE391E070
:100B900029813A812C553B4FF9012081FC012083AA
:100BA00089819A8101969A83898389819A81409764
:100BB0006CF38CE391E028E0FC0120831A82198217
:100BC00011C08EE391E029813A814C815D81240F2F
:100BD000351FF9012081FC01208389819A810196CA
:100BE0009A83898389819A8140975CF38CE391E0B1
:100BF00028E8FC01208300008DE391E0FC01808166
:100C000081708823C9F31A82198211C089819A815F
:100C10002E813F81820F931F2EE331E0F901208165
:100C2000FC01208389819A8101969A838983898135
:100C30009A8140975CF38DE391E0FC0180812796D7
:100C40000FB6F894DEBF0FBECDBFDF91CF910895F0
:100C5000A1E21A2EAA1BBB1BFD010DC0AA1FBB1FC0
:100C6000EE1FFF1FA217B307E407F50720F0A21B32
:100C7000B30BE40BF50B661F771F881F991F1A949F
:100C800069F760957095809590959B01AC01BD01C9
:100C9000CF010895B7FF04C003D0821B930B0895C2
:100CA00009D0A59F900DB49F900DA49F800D911D1C
:100CB00011240895A29FB001B39FC001A39F700D9E
:100CC000811D1124911DB29F700D811D1124911D54
:100CD0000895CF93DF93CDB7DEB7AE014B5F5F4F83
:100CE000FA0161917191AF018091B6049091B704BE
:100CF00038D0DF91CF9108956091B6047091B70418
:100D000043C20F931F93CF93DF93E091B604F0910A
:100D1000B704238121FF1BC08C01D0E0C0E0F801A3
:100D200081918F016091B6047091B704DB01189630
:100D3000ED91FC911997882331F00995892B79F36E
:100D4000DFEFCFEFECCF8AE00995892B19F08FEF19
:100D50009FEF02C08D2F9C2FDF91CF911F910F919C
:100D600008952F923F924F925F926F927F928F924F
:100D70009F92AF92BF92CF92DF92EF92FF920F932A
:100D80001F93CF93DF93CDB7DEB72B970FB6F894B1
:100D9000DEBF0FBECDBF6C017B018A01FC01178253
:100DA0001682838181FFBFC1CE0101963C01F6010D
:100DB0009381F70193FD859193FF81917F018823B2
:100DC00009F4ADC1853239F493FD859193FF81918A
:100DD0007F01853221F4B60190E0D6D1E8CF912C85
:100DE000212C312CFFE1F315D8F08B3279F038F457
:100DF000803279F08332A1F4232D20611DC08D3221
:100E000061F0803369F4232D216016C0832D826048
:100E1000382EE32DE4603E2E2AC0F32DF8601DC06D
:100E200037FC2DC020ED280F2A3040F08E32B9F467
:100E300036FC75C1232D2064322E19C036FE06C043
:100E40008AE0989E200D1124922E11C0EAE02E9E79
:100E5000200D1124222EF32DF0623F2E08C08C3677
:100E600021F4832D8068382E02C0883641F4F701C2
:100E700093FD859193FF81917F018111B3CF982FCD
:100E80009F7D9554933028F40C5F1F4F9FE3998307
:100E90000DC0833631F0833771F0833509F055C0CA
:100EA00020C0F801808189830E5F1F4F88248394BE
:100EB000912C530112C02801F2E04F0E511CF80191
:100EC000A080B18036FE03C0692D70E002C06FEFD4
:100ED0007FEFC5014ED14C018201F32DFF773F2EEC
:100EE00015C0280122E0420E511CF801A080B180FB
:100EF00036FE03C0692D70E002C06FEF7FEFC501C1
:100F00002DD14C01F32DF0683F2E820133FC19C026
:100F1000822D90E088169906A0F4B60180E290E058
:100F200033D12A94F5CFF50137FC859137FE8191B5
:100F30005F01B60190E028D121102A9421E0821AA5
:100F400091088114910479F7E1C0843611F0893653
:100F500039F5F80137FE07C0608171818281938184
:100F60000C5F1F4F08C060817181072E000C880B39
:100F7000990B0E5F1F4FF32DFF763F2E97FF09C091
:100F800090958095709561957F4F8F4F9F4FF0683A
:100F90003F2E2AE030E0A30133D1882E861844C0CA
:100FA000853731F4232D2F7EB22E2AE030E025C084
:100FB000932D997FB92E8F36C1F018F4883579F0CA
:100FC000AEC0803719F0883721F0A9C0E92FE06161
:100FD000BE2EB4FE0DC0FB2DF460BF2E09C034FE42
:100FE0000AC0292F2660B22E06C028E030E005C0D6
:100FF00020E130E002C020E132E0F801B7FE07C096
:1010000060817181828193810C5F1F4F06C0608176
:10101000718180E090E00E5F1F4FA301F1D0882E18
:101020008618FB2DFF773F2E36FE0DC0232D2E7F19
:10103000A22E891458F434FE0BC032FC09C0832D53
:101040008E7EA82E05C0B82CA32C03C0B82C01C0DE
:10105000B92CA4FE0FC0FE01E80DF11D8081803384
:1010600021F49A2D997EA92E09C0A2FE06C0B39440
:10107000B39404C08A2D867809F0B394A3FC10C001
:10108000A0FE06C0B21480F4280C922C9B180DC050
:10109000B21458F4B60180E290E076D0B394F8CF61
:1010A000B21418F42B1802C0982C212CA4FE0FC0E7
:1010B000B60180E390E068D0A2FE16C0A1FC03C098
:1010C00088E790E002C088E590E0B6010CC08A2D68
:1010D000867851F0A1FE02C08BE201C080E2A7FC3D
:1010E0008DE2B60190E050D0891430F4B60180E36F
:1010F00090E04AD09A94F8CF8A94F301E80DF11D5C
:101100008081B60190E040D08110F6CF222009F412
:101110004ECEB60180E290E037D02A94F7CFF601A8
:101120008681978102C08FEF9FEF2B960FB6F894C0
:10113000DEBF0FBECDBFDF91CF911F910F91FF900A
:10114000EF90DF90CF90BF90AF909F908F907F9067
:101150006F905F904F903F902F900895FC01059005
:10116000615070400110D8F7809590958E0F9F1FA9
:101170000895FC016150704001900110D8F78095EE
:1011800090958E0F9F1F08950F931F93CF93DF931A
:10119000FB01238121FD03C08FEF9FEF2CC022FFB5
:1011A00016C046815781248135814217530744F484
:1011B000A081B1819D012F5F3F4F318320838C93AC
:1011C000268137812F5F3F4F3783268314C08B01E1
:1011D000EC01FB010084F185E02D0995892BE1F6F6
:1011E000D80116968D919C911797019617969C930E
:1011F0008E931697CE01DF91CF911F910F91089595
:10120000FA01AA27283051F1203181F1E8946F9337
:101210006E7F6E5F7F4F8F4F9F4FAF4FB1E03ED0DD
:10122000B4E03CD0670F781F891F9A1FA11D680F7B
:10123000791F8A1F911DA11D6A0F711D811D911DAE
:10124000A11D20D009F468943F912AE0269F112423
:101250003019305D3193DEF6CF010895462F477087
:10126000405D4193B3E00FD0C9F7F6CF462F4F70E2
:10127000405D4A3318F0495D31FD4052419302D040
:10128000A9F7EACFB4E0A6959795879577956795E6
:10129000BA95C9F700976105710508959B01AC01E6
:1012A0000A2E06945795479537952795BA95C9F70D
:1012B000620F731F841F951FA01D0895F894FFCF20
:1012C000010001010101010101010101010101010F
:1012D0000401FF00000003000000001605330500B4
:1012E0000044656D6F2070726F6772616D2072755A
:1012F0006E6E696E672E0A0D006F66660A0D006FCE
:101300006E2E2E2E005265636569766520696E200B
:10131000726177206D6F64652E0A0D0052656365FA
:1013200069766520696E206E6F726D616C206D6FDD
:1013300064652E0A0D004D657373616765207265E3
:101340006365697665642066726F6D207472616E84
:10135000736D6974746572202530327820746F2043
:101360007265636569766572202530327820776909
:1013700074682064617461203A0025303278004D31
:101380006573736167652064656372797074656401
:101390003A0025303278200056616C696420636F12
:1013A000646520726563656976656420616E64209A
:1013B000736F757263652C64657374696E617469AB
:1013C0006F6E2076616C696420004C6F636B206FD8
:1013D00070656E6564004C6F636B20636C6F736542
:1013E0006400536F75726365206F72206465737457
:1013F000696E6174696F6E20697320696E76616CC5
:1014000069642000526164696F2072782E207661D1
:101410006C69643D256420656E657267793D25645D
:10142000206C656E3D25642E20446174613D002270
:101430000A0D004563686F65642E0A0D003D2200A9
:00000001FF
