S00F0000727864656D6F342E7372656352
S11300008FC00000AAC00000A8C00000A6C0000065
S1130010A4C00000A2C00000A0C000009EC0000058
S11300209CC000009AC0000098C0000096C0000068
S113003094C0000092C0000090C000008EC0000078
S11300408CC000008AC0000088C0000086C0000088
S113005084C0000082C0000080C000007EC0000098
S11300607CC000007AC0000078C0000076C00000A8
S113007074C0000072C0000070C000006EC00000B8
S11300806CC000006AC0000068C0000066C00000C8
S113009064C0000062C0000060C000005EC00000D8
S11300A05CC000005AC0000058C0000056C00000E8
S11300B054C0000052C0000050C000004EC00000F8
S11300C04CC000004AC0000048C0000046C0000008
S11300D044C0000042C0000040C000003EC0000018
S11300E03CC000003AC0000038C0000036C0000028
S11300F034C0000032C0000030C000002EC0000038
S11301002CC000002AC0000028C0000026C0000047
S113011024C0000022C0000020C000001EC0000057
S113012011241FBECFEFD1E4DEBFCDBF13E0A0E0AA
S1130130B2E0ECE2F1E100E00BBF02C007900D92E7
S1130140A238B107D9F724E0A2E8B3E001C01D92B8
S1130150AD31B207E1F7D3D1E7C752CFB1D183E0D4
S1130160B6D160E875E280E090E094D381E192E05A
S113017001D483E0B8D182E0AAD198D182E090E0A2
S1130180FDD131C208959F92AF92BF92CF92DF9278
S1130190EF92FF920F931F93CF93DF93CDB7DEB708
S11301A027970FB6F894DEBF0FBECDBF1A8219820F
S11301B01C821B821D821E821F82809100029091EC
S11301C00102892B41F082E08ED181E080D110922E
S11301D00102109200028091840390918503A09102
S11301E08603B09187030196A11DB11D813A26E8CB
S11301F0920721E0A207B1054CF480938403909305
S11302008503A0938603B09387032AC010928403C6
S113021010928503109286031092870380918203C3
S113022090918303892B71F01092830310928203BF
S113023081E059D189E292E09F938F9380D40F900B
S11302400F900EC081E090E090938303809382032B
S11302503ED18FE292E09F938F9371D40F900F90D1
S113026028D18823F9F08091880381110DC082E0A0
S11302702ED185E392E09F938F9361D481E08093A4
S113028088030F900F900BC082E02DD18CE492E094
S11302909F938F9354D4109288030F900F9009D199
S11302A08111FDCFF8D1882309F4EEC08091880331
S11302B0811174C0CE0107966C01FE0136967F0150
S11302C08E010B5F1F4F9E012D5F3F4FAE014F5FAD
S11302D05F4F60E889E893E0E4D1C82E8A818F9368
S11302E089818F938C818F938B818F9386E692E0A3
S11302F09F938F9324D40F900F900F900F900F9093
S11303000F90CC20E9F009E813E08C2D90E09C01DB
S113031027573C4F69010F2EF9EAEF2EF2E0FF2E2A
S1130320F02DF80181918F011F928F93FF92EF922C
S113033006D40F900F900F900F900C151D0589F7A0
S113034080918903803319F580918A038336F9F407
S113035080918B038333D9F489819A81029781F444
S11303608B819C81019761F48FEA92E000D489EE3D
S113037092E0FDD382E0ABD085EF92E0F8D384C065
S113038081E093E0F4D383E293E0F1D37DC084E38E
S113039093E0EDD383E293E0EAD376C09E012A5F33
S11303A03F4FAE014B5F5F4F60E889E893E00FD2A7
S11303B0982E082F10E01F928F938E811F928F9397
S11303C08D811F928F9386E493E09F938F93B7D38D
S11303D00FB6F894DEBF0FBECDBF101611060CF099
S11303E04BC009E813E0892D90E0FC01E757FC4F6E
S11303F06F0178010F2EF9EAAF2EF2E0BF2EF02D37
S1130400F70181917F011F928F93BF92AF9297D38F
S11304100F900F900F900F90EC14FD0489F724C0F7
S1130420F80181918F0190EE980F9F3518F490E0B8
S113043099D303C08EE290E095D30C151D0581F786
S113044081E793E09F938F937AD36DEF690D89E8E9
S113045093E0DBD085E793E09F938F9370D30F9065
S11304600F900F900F9010C08FE793E09F938F939E
S113047066D30F900F90D4CF8FE793E09F938F9321
S11304805ED30F900F90DCCF27960FB6F894DEBFA3
S11304900FBECDBFDF91CF911F910F91FF90EF90D1
S11304A0DF90CF90BF90AF909F9008956D98759A0C
S11304B008958CB185FB882780F991E089270895F8
S11304C06A9A6B9A6C9A729A739A749A08958130A4
S11304D011F472980895823011F47398089583305A
S11304E009F474980895813011F4729A0895823051
S11304F011F4739A0895833009F4749A089558D2C4
S113050080E090E063D22ADE0F2EF0E8CF2EFEE3E7
S1130510DF2EE12CF12CF02D36DE63D2882389F016
S11305208091090490910A04A0910B04B0910C04E9
S113053011968093090490930A04A0930B04B0933A
S11305400C045AD24091090450910A0460910B049E
S113055070910C048A019B01080F191F211D311D84
S1130560C901B801A7019601A9D2209313043093BD
S113057014044093150450931604CECF0F931F9385
S1130580CF93DF93D82FC92F09E311E0F80110822C
S113059086E090E036D281E0F801808380914101C9
S11305A0811108C088E0809342018EEF91E029D246
S11305B0809141018BE0809348018FEF80934F013C
S11305C0D0931004C0931104D0936001C0936101CF
S11305D0109262011092630180914101DF91CF91E9
S11305E01F910F9108958FEF80934F0186E08093C0
S11305F04201E1E4F1E080818F718630E1F7ECE4BF
S1130600F1E080818068808308952FEF20934F016B
S1130610209141012F71293041F029E020934201BA
S1130620E1E4F1E020812930E9F722E0260F20936C
S11306308001662391F0A82FB92F615070E09B01CF
S11306402E573E4FE1E8F1E08D918193E217F307D5
S1130650D9F7FB01EE57FE4F02C0E1E8F1E010824A
S1130660118282E080934201EFE4F1E0808186FF11
S1130670FDCF8FEF80934F0186E080934201E1E448
S1130680F1E080818F718630E1F781E080930D0481
S113069080914101089580914F0183FB882780F95F
S11306A008959F92AF92BF92CF92DF92EF92FF9202
S11306B00F931F93CF93DF9390907B017FEF709301
S11306C00202EFE4F1E0708172FFFDCFCFE4D1E0EC
S11306D00F2EF6E4AF2EBB24B394F02D0DC0F5011C
S11306E07081E72FEF71F0E0AE17BF0744F4D50136
S11306F0EC91EF71E0930202A0910202B0E07881E4
S113070073FFEDCF75EF790D671708F4762FE0913D
S11307108501F0E0FE2FEE2760918601E62BDA01D9
S1130720ED93FC934091890150E0542F442760914C
S11307308A01462BF90151834083772399F0A82F2E
S1130740B92F4FEF470F50E09A0124573E4FEBE883
S1130750F1E091919D93E217F307D9F7FA01E45779
S1130760FE4F02C0EBE8F1E0808180930E04D601D5
S11307708C938091470180930F04F70180838091CB
S11307804601881F8827881FD8018C93E1E4F1E093
S113079090819F719630E1F7ECE4F1E080818F77EE
S11307A080838081806880838FEF80934F01809164
S11307B041018EEF870FDF91CF911F910F91FF9031
S11307C0EF90DF90CF90BF90AF909F900895EF92FD
S11307D0FF920F931F93CF93DF93782F790180912A
S11307E07B012FEF20930202EFE4F1E0308132FF2E
S11307F0FDCF0FE411E0C6E4D1E00AC0E881EF7157
S1130800F0E0AE17BF073CF428812F712093020259
S1130810A0910202B0E0F801308133FFEFCF8F5F87
S1130820681708F4862F882371F0A72FB92F6FEF6C
S1130830680F70E06F577E4FE0E8F1E091919D936F
S1130840E617F707D9F79091470190930F04F70142
S1130850908390914601991F9927991FFA019083DB
S1130860E1E4F1E090819F719630E1F7ECE4F1E08E
S113087090819F7790839081906890839FEF90936D
S11308804F0190914101DF91CF911F910F91FF9002
S1130890EF9008954F925F926F927F928F929F9202
S11308A0AF92BF92CF92DF92EF92FF922B013C0165
S11308B000D16B017C01689413F8F694E794D79403
S11308C0C7941694D1F70F2EFAE08F2E912CA12CF9
S11308D0B12CF02DC301B201A5019401EFD0C701E1
S11308E0B601ECD0CA01B9016B5F7F4F8F4F9F4FA8
S11308F0A5019401E3D0BA01A9014150510961094C
S11309007109E1ECF0E010821092C00086E080935F
S1130910C200852F8F708093C5004093C40088E186
S11309208083E7E1F4E083E092E093838283918320
S113093080839583848381E080931204FF90EF90F9
S1130940DF90CF90BF90AF909F908F907F906F90EB
S11309505F904F900895E0ECF0E0908195FFFDCF1B
S11309608093C6000895CF93C82FF5DF8C2F90E0B5
S1130970CF910895CF93DF93EC018881882329F0E8
S11309802196E9DF89918111FCCFDF91CF91089500
S1130990E0ECF0E080818823ECF78091C6000895B4
S11309A0CF93F6DFC82FD7DF8C2F90E0CF91089537
S11309B01092800081E08093810010928200109256
S11309C085001092840010926F000895CF93DF93F6
S11309D0EC01EEDFD0938500C0938400DF91CF91CA
S11309E0089596B381E0292F217090FF80E022239F
S11309F011F091E096BB0895809184009091850058
S1130A0008958F929F92AF92BF92CF92DF92EF920E
S1130A10FF92CF93DF934C01A12CB12C880C991C2D
S1130A20AA1CBB1C880C991CAA1CBB1C880C991CF6
S1130A30AA1CBB1C880C991CAA1CBB1C8114910405
S1130A4081E0A806B10400F175016401C4E8D0E0B6
S1130A50AFDF1982188281E0E81AF108C2DF882327
S1130A60E9F3C114D10481E0E806F10488F781E0D8
S1130A70A81AB108950144275527A0E0B0E042D058
S1130A80860E971EA81EB91E8094909491DF9092B2
S1130A90850080928400A5DF8823E9F3DF91CF915C
S1130AA0FF90EF90DF90CF90BF90AF909F908F908A
S1130AB0089560E074E284EF90E00895A1E21A2EB4
S1130AC0AA1BBB1BFD010DC0AA1FBB1FEE1FFF1FEE
S1130AD0A217B307E407F50720F0A21BB30BE40B3E
S1130AE0F50B661F771F881F991F1A9469F7609585
S1130AF07095809590959B01AC01BD01CF0108953F
S1130B00B7FF04C003D0821B930B089509D0A59F9F
S1130B10900DB49F900DA49F800D911D11240895F4
S1130B20A29FB001B39FC001A39F700D811D11242A
S1130B30911DB29F700D811D1124911D0895CF93B5
S1130B40DF93CDB7DEB7AE014B5F5F4FFA01619122
S1130B507191AF018091190490911A0438D0DF91FA
S1130B60CF9108956091190470911A0443C20F93B0
S1130B701F93CF93DF93E0911904F0911A0423811A
S1130B8021FF1BC08C01D0E0C0E0F80181918F01EE
S1130B906091190470911A04DB011896ED91FC918F
S1130BA01997882331F00995892B79F3DFEFCFEF7B
S1130BB0ECCF8AE00995892B19F08FEF9FEF02C0E3
S1130BC08D2F9C2FDF91CF911F910F9108952F921C
S1130BD03F924F925F926F927F928F929F92AF92C9
S1130BE0BF92CF92DF92EF92FF920F931F93CF9316
S1130BF0DF93CDB7DEB72B970FB6F894DEBF0FBEE9
S1130C00CDBF6C017B018A01FC01178216828381AE
S1130C1081FFBFC1CE0101963C01F6019381F7012A
S1130C2093FD859193FF81917F01882309F4ADC1E0
S1130C30853239F493FD859193FF81917F0185324B
S1130C4021F4B60190E0D6D1E8CF912C212C312C9F
S1130C50FFE1F315D8F08B3279F038F4803279F073
S1130C608332A1F4232D20611DC08D3261F08033C5
S1130C7069F4232D216016C0832D8260382EE32D64
S1130C80E4603E2E2AC0F32DF8601DC037FC2DC051
S1130C9020ED280F2A3040F08E32B9F436FC75C1AD
S1130CA0232D2064322E19C036FE06C08AE0989E99
S1130CB0200D1124922E11C0EAE02E9E200D112445
S1130CC0222EF32DF0623F2E08C08C3621F4832DA2
S1130CD08068382E02C0883641F4F70193FD85916F
S1130CE093FF81917F018111B3CF982F9F7D9554FC
S1130CF0933028F40C5F1F4F9FE399830DC0833614
S1130D0031F0833771F0833509F055C020C0F80104
S1130D10808189830E5F1F4F88248394912C530113
S1130D2012C02801F2E04F0E511CF801A080B180DE
S1130D3036FE03C0692D70E002C06FEF7FEFC5017E
S1130D404ED14C018201F32DFF773F2E15C02801AF
S1130D5022E0420E511CF801A080B18036FE03C08F
S1130D60692D70E002C06FEF7FEFC5012DD14C01FA
S1130D70F32DF0683F2E820133FC19C0822D90E0E0
S1130D8088169906A0F4B60180E290E033D12A9443
S1130D90F5CFF50137FC859137FE81915F01B601EE
S1130DA090E028D121102A9421E0821A910881141C
S1130DB0910479F7E1C0843611F0893639F5F801E8
S1130DC037FE07C060817181828193810C5F1F4F60
S1130DD008C060817181072E000C880B990B0E5F8F
S1130DE01F4FF32DFF763F2E97FF09C090958095F6
S1130DF0709561957F4F8F4F9F4FF0683F2E2AE08B
S1130E0030E0A30133D1882E861844C0853731F4ED
S1130E10232D2F7EB22E2AE030E025C0932D997F1A
S1130E20B92E8F36C1F018F4883579F0AEC080370A
S1130E3019F0883721F0A9C0E92FE061BE2EB4FE75
S1130E400DC0FB2DF460BF2E09C034FE0AC0292F4B
S1130E502660B22E06C028E030E005C020E130E074
S1130E6002C020E132E0F801B7FE07C06081718161
S1130E70828193810C5F1F4F06C06081718180E085
S1130E8090E00E5F1F4FA301F1D0882E8618FB2D32
S1130E90FF773F2E36FE0DC0232D2E7FA22E891400
S1130EA058F434FE0BC032FC09C0832D8E7EA82E6C
S1130EB005C0B82CA32C03C0B82C01C0B92CA4FEC7
S1130EC00FC0FE01E80DF11D8081803321F49A2DBD
S1130ED0997EA92E09C0A2FE06C0B394B39404C09F
S1130EE08A2D867809F0B394A3FC10C0A0FE06C036
S1130EF0B21480F4280C922C9B180DC0B21458F430
S1130F00B60180E290E076D0B394F8CFB21418F42E
S1130F102B1802C0982C212CA4FE0FC0B60180E32C
S1130F2090E068D0A2FE16C0A1FC03C088E790E060
S1130F3002C088E590E0B6010CC08A2D867851F095
S1130F40A1FE02C08BE201C080E2A7FC8DE2B601E3
S1130F5090E050D0891430F4B60180E390E04AD098
S1130F609A94F8CF8A94F301E80DF11D8081B601BB
S1130F7090E040D08110F6CF222009F44ECEB60185
S1130F8080E290E037D02A94F7CFF60186819781EA
S1130F9002C08FEF9FEF2B960FB6F894DEBF0FBE03
S1130FA0CDBFDF91CF911F910F91FF90EF90DF9014
S1130FB0CF90BF90AF909F908F907F906F905F90F5
S1130FC04F903F902F900895FC0105906150704020
S1130FD00110D8F7809590958E0F9F1F0895FC01FE
S1130FE06150704001900110D8F7809590958E0F54
S1130FF09F1F08950F931F93CF93DF93FB012381CA
S113100021FD03C08FEF9FEF2CC022FF16C0468145
S11310105781248135814217530744F4A081B1815B
S11310209D012F5F3F4F318320838C93268137812D
S11310302F5F3F4F3783268314C08B01EC01FB01E4
S11310400084F185E02D0995892BE1F6D8011696E7
S11310508D919C911797019617969C938E93169752
S1131060CE01DF91CF911F910F910895FA01AA2724
S1131070283051F1203181F1E8946F936E7F6E5FD7
S11310807F4F8F4F9F4FAF4FB1E03ED0B4E03CD085
S1131090670F781F891F9A1FA11D680F791F8A1F68
S11310A0911DA11D6A0F711D811D911DA11D20D0CF
S11310B009F468943F912AE0269F11243019305D89
S11310C03193DEF6CF010895462F4770405D41937A
S11310D0B3E00FD0C9F7F6CF462F4F70405D4A33C7
S11310E018F0495D31FD4052419302D0A9F7EACF8F
S11310F0B4E0A6959795879577956795BA95C9F7BE
S113110000976105710508959B01AC010A2E0694B0
S11311105795479537952795BA95C9F7620F731F69
S10F1120841F951FA01D0895F894FFCFB4
S113112C0100FF0000000300000000B304D0040021
S113113C0044656D6F2070726F6772616D207275FB
S113114C6E6E696E672E0A0D006F66660A0D006F6F
S113115C6E2E2E2E005265636569766520696E20AD
S113116C726177206D6F64652E0A0D00526563659C
S113117C69766520696E206E6F726D616C206D6F7F
S113118C64652E0A0D004D65737361676520726585
S113119C6365697665642066726F6D207472616E26
S11311AC736D6974746572202530327820746F20E5
S11311BC72656365697665722025303278207769AB
S11311CC746820646174613A0025303278200056CA
S11311DC616C696420736F7572636520616E642041
S11311EC64657374696E6174696F6E20616E6420DA
S11311FC76616C69642070617373776F72642072AA
S113120C6563696576656420004C6F636B206F7051
S113121C656E6564004C6F636B20636C6F736564FF
S113122C00536F75726365206F7220646573746903
S113123C6E6174696F6E20697320696E76616C6976
S113124C6420004C6F636B206E6F74206F70656E3E
S113125C6564200050617373776F726420696E76D5
S113126C616C69642000526164696F2072782E206D
S113127C76616C69643D256420656E657267793DA1
S113128C2564206C656E3D25642E20446174613D9B
S113129C00220A0D004563686F65642E0A0D003D3B
S10512AC22001A
S9030000FC
