S00F0000747864656D6F352E737265634F
S11300008FC00000AAC00000A8C00000A6C0000065
S1130010A4C00000A2C00000A0C000009EC0000058
S11300209CC000009AC0000098C0000096C0000068
S113003094C0000092C0000090C000008EC0000078
S11300408CC000008AC0000088C0000086C0000088
S113005084C0000082C0000080C000007EC0000098
S11300607CC000007AC0000078C0000076C00000A8
S113007074C0000072C0000070C000006EC00000B8
S11300806CC000006AC0000068C0000066C00000C8
S113009064C0000062C0000060C000005EC00000D8
S11300A05CC000005AC0000058C0000056C00000E8
S11300B054C0000052C0000050C000004EC00000F8
S11300C04CC000004AC0000048C0000046C0000008
S11300D044C0000042C0000040C000003EC0000018
S11300E03CC000003AC0000038C0000036C0000028
S11300F034C0000032C0000030C000002EC0000038
S11301002CC000002AC0000028C0000026C0000047
S113011024C0000022C0000020C000001EC0000057
S113012011241FBECFEFD1E4DEBFCDBF12E0A0E0AB
S1130130B2E0ECE9FEE000E00BBF02C007900D92D4
S1130140A43AB107D9F723E0A4EAB2E001C01D92B2
S1130150A63DB207E1F79CD09FC652CF67D183E09A
S11301606CD160E875E280E090E029D21F9281E0D2
S11301708F938EE192E09F938F93CED382E05DD1F3
S11301807DD081E090E071D1A5D180E092E097D25A
S11301900F900F900F900F900895EF92FF920F938E
S11301A01F93CF93DF93E4E2F3E080E3808383E65D
S11301B0818367D0882309F45AC063D08111FDCFAD
S11301C0C4E2D3E083E38A8381E037D10A811981D1
S11301D0C8819DD01F920F931F921F931F92CF939C
S11301E09F938F937F936F9385E492E09F938F9374
S11301F093D364EA72E084E293E0D6D28BE692E091
S11302009F938F9389D3C4EAD2E00F2EF4EBEF2EA1
S1130210F2E0FF2EF02D8DB79EB70E960FB6F89430
S11302209EBF0FBE8DBF0FE712E089911F928F937F
S11302301F930F9371D30F900F900F900F90CE15C3
S1130240DF0599F742E050E060E184EA92E054D19E
S113025081E0FFD01F9282E08F9385E892E09F9324
S11302608F935AD354D00F900F900F900F90DF912B
S1130270CF911F910F91FF90EF9008956D98759A0B
S113028008958CB185FB882780F991E0892708952A
S113029047D080E090E052D061DF0F2EF0E8CF2EFF
S11302A0FEE3DF2EE12CF12CF02D77DF52D08823F2
S11302B089F08091A4039091A503A091A603B09125
S11302C0A70311968093A4039093A503A093A60378
S11302D0B093A70349D04091A4035091A503609122
S11302E0A6037091A7038A019B01080F191F211D02
S11302F0311DC901B801A7019601CDD22093A803ED
S11303003093A9034093AA035093AB03CECF6091DB
S1130310A8037091A9038091AA039091AB03089557
S11303201092800081E080938100109282001092EC
S113033085001092840010926F000895CF93DF938C
S1130340EC01EEDFD0938500C0938400DF91CF9160
S1130350089596B381E0292F217090FF80E0222335
S113036011F091E096BB08958091840090918500EE
S113037008958F929F92AF92BF92CF92DF92EF92A5
S1130380FF92CF93DF934C01A12CB12C880C991CC4
S1130390AA1CBB1C880C991CAA1CBB1C880C991C8D
S11303A0AA1CBB1C880C991CAA1CBB1C811491049C
S11303B081E0A806B10400F175016401C4E8D0E04D
S11303C0AFDF1982188281E0E81AF108C2DF8823BE
S11303D0E9F3C114D10481E0E806F10488F781E06F
S11303E0A81AB108950144275527A0E0B0E077D2B8
S11303F0860E971EA81EB91E8094909491DF909249
S1130400850080928400A5DF8823E9F3DF91CF91F2
S1130410FF90EF90DF90CF90BF90AF909F908F9020
S1130420089560E074E284EF90E008956A9A6B9A0C
S11304306C9A729A739A749A0895813011F472982E
S11304400895823011F473980895833009F47498F0
S11304500895813011F4729A0895823011F4739AD8
S11304600895833009F4749A08950F931F93CF93DA
S1130470DF93D82FC92F09E311E0F801108286E039
S113048090E077DF81E0F801808380914101811160
S113049008C088E0809342018EEF91E06ADF80918A
S11304A041018BE0809348018FEF80934F01D093FB
S11304B0AD03C093AE03D0936001C0936101109269
S11304C062011092630180914101DF91CF911F91EC
S11304D00F9108958FEF80934F0186E0809342013E
S11304E0E1E4F1E080818F718630E1F7ECE4F1E042
S11304F080818068808308952FEF20934F0120919D
S113050041012F71293041F029E020934201E1E4B7
S1130510F1E020812930E9F72DE0260F20938001B6
S113052020E22093810122E22093820121E02093A2
S113053083011092840110928501509386014093A7
S1130540870110928801109289012091AE032093B3
S11305508A012091AD0320938B01662391F0A82F8B
S1130560B92F615070E09B0123573E4FECE8F1E056
S11305708D918193E217F307D9F7FB01E357FE4FFF
S113058002C0ECE8F1E01082118282E08093420123
S1130590EFE4F1E0808186FFFDCF8FEF80934F0180
S11305A086E080934201E1E4F1E080818F7186303E
S11305B0E1F781E08093AC038091410108954F926B
S11305C05F926F927F928F929F92AF92BF92CF92DF
S11305D0DF92EF92FF922B013C0123DF6B017C0140
S11305E0689413F8F694E794D794C7941694D1F7C3
S11305F00F2EFAE08F2E912CA12CB12CF02DC301DB
S1130600B201A501940147D1C701B60144D1CA0181
S1130610B9016B5F7F4F8F4F9F4FA50194013BD171
S1130620BA01A9014150510961097109E1ECF0E0F5
S113063010821092C00086E08093C200852F8F70D4
S11306408093C5004093C40088E18083E0EDF3E02B
S113065080E192E093838283918380839583848372
S113066081E08093AF03FF90EF90DF90CF90BF9035
S1130670AF909F908F907F906F905F904F90089570
S1130680E0ECF0E0908195FFFDCF8093C6000895E3
S1130690CF93C82FF5DF8C2F90E0CF910895E0EC35
S11306A0F0E080818823ECF78091C6000895CF9311
S11306B0F6DFC82FE5DF8C2F90E0CF910895CF931C
S11306C0DF9300D000D01F92CDB7DEB79D838C831B
S11306D08CE391E0FC0180818B831A8219821DC016
S11306E089819A812C813D81820F931FFC01208195
S11306F089819A8180559C4FFC0120838FE391E08E
S113070029813A8120553C4FF9012081FC01208345
S113071089819A8101969A83898389819A814097F4
S1130720FCF28CE391E0FC0110821A82198209C068
S11307308EE391E0FC01108289819A8101969A836B
S1130740898389819A8140979CF38CE391E020E826
S1130750FC01208300008DE391E0FC018081817025
S11307608823C9F380E290E004DE1A8219820FC064
S11307708FE391E0FC01208189819A8180549C4F10
S1130780FC01208389819A8101969A8389838981D6
S11307909A8140976CF300000F900F900F900F9088
S11307A00F90DF91CF910895CF93DF93CDB7DEB74C
S11307B027970FB6F894DEBF0FBECDBF9D838C8301
S11307C07F836E838CE391E0FC0180818B831A82AA
S11307D019820FC08FE391E029813A8120553C4F63
S11307E0F9012081FC01208389819A8101969A83F1
S11307F0898389819A8140976CF38CE391E0FC01B1
S113080010821A82198211C08EE391E029813A8103
S11308104C815D81240F351FF9012081FC01208367
S113082089819A8101969A83898389819A814097E3
S11308305CF38CE391E020E8FC01208300008DE36D
S113084091E0FC01808181708823C9F31A821982A6
S113085011C089819A812E813F81820F931F2EE3DB
S113086031E0F9012081FC01208389819A8101967C
S11308709A83898389819A8140975CF38DE391E01F
S1130880FC01808127960FB6F894DEBF0FBECDBF62
S1130890DF91CF910895A1E21A2EAA1BBB1BFD0183
S11308A00DC0AA1FBB1FEE1FFF1FA217B307E4074B
S11308B0F50720F0A21BB30BE40BF50B661F771FA3
S11308C0881F991F1A9469F7609570958095909583
S11308D09B01AC01BD01CF010895B7FF04C003D053
S11308E0821B930B089509D0A59F900DB49F900D82
S11308F0A49F800D911D11240895A29FB001B39F60
S1130900C001A39F700D811D1124911DB29F700D14
S1130910811D1124911D0895CF93DF93CDB7DEB7C8
S1130920AE014B5F5F4FFA0161917191AF0180910C
S1130930D2039091D30303D0DF91CF9108952F92E6
S11309403F924F925F926F927F928F929F92AF925B
S1130950BF92CF92DF92EF92FF920F931F93CF93A8
S1130960DF93CDB7DEB72B970FB6F894DEBF0FBE7B
S1130970CDBF6C017B018A01FC0117821682838141
S113098081FFBFC1CE0101963C01F6019381F701BD
S113099093FD859193FF81917F01882309F4ADC173
S11309A0853239F493FD859193FF81917F018532DE
S11309B021F4B60190E0D6D1E8CF912C212C312C32
S11309C0FFE1F315D8F08B3279F038F4803279F006
S11309D08332A1F4232D20611DC08D3261F0803358
S11309E069F4232D216016C0832D8260382EE32DF7
S11309F0E4603E2E2AC0F32DF8601DC037FC2DC0E4
S1130A0020ED280F2A3040F08E32B9F436FC75C13F
S1130A10232D2064322E19C036FE06C08AE0989E2B
S1130A20200D1124922E11C0EAE02E9E200D1124D7
S1130A30222EF32DF0623F2E08C08C3621F4832D34
S1130A408068382E02C0883641F4F70193FD859101
S1130A5093FF81917F018111B3CF982F9F7D95548E
S1130A60933028F40C5F1F4F9FE399830DC08336A6
S1130A7031F0833771F0833509F055C020C0F80197
S1130A80808189830E5F1F4F88248394912C5301A6
S1130A9012C02801F2E04F0E511CF801A080B18071
S1130AA036FE03C0692D70E002C06FEF7FEFC50111
S1130AB04ED14C018201F32DFF773F2E15C0280142
S1130AC022E0420E511CF801A080B18036FE03C022
S1130AD0692D70E002C06FEF7FEFC5012DD14C018D
S1130AE0F32DF0683F2E820133FC19C0822D90E073
S1130AF088169906A0F4B60180E290E033D12A94D6
S1130B00F5CFF50137FC859137FE81915F01B60180
S1130B1090E028D121102A9421E0821A91088114AE
S1130B20910479F7E1C0843611F0893639F5F8017A
S1130B3037FE07C060817181828193810C5F1F4FF2
S1130B4008C060817181072E000C880B990B0E5F21
S1130B501F4FF32DFF763F2E97FF09C09095809588
S1130B60709561957F4F8F4F9F4FF0683F2E2AE01D
S1130B7030E0A30133D1882E861844C0853731F480
S1130B80232D2F7EB22E2AE030E025C0932D997FAD
S1130B90B92E8F36C1F018F4883579F0AEC080379D
S1130BA019F0883721F0A9C0E92FE061BE2EB4FE08
S1130BB00DC0FB2DF460BF2E09C034FE0AC0292FDE
S1130BC02660B22E06C028E030E005C020E130E007
S1130BD002C020E132E0F801B7FE07C060817181F4
S1130BE0828193810C5F1F4F06C06081718180E018
S1130BF090E00E5F1F4FA301F1D0882E8618FB2DC5
S1130C00FF773F2E36FE0DC0232D2E7FA22E891492
S1130C1058F434FE0BC032FC09C0832D8E7EA82EFE
S1130C2005C0B82CA32C03C0B82C01C0B92CA4FE59
S1130C300FC0FE01E80DF11D8081803321F49A2D4F
S1130C40997EA92E09C0A2FE06C0B394B39404C031
S1130C508A2D867809F0B394A3FC10C0A0FE06C0C8
S1130C60B21480F4280C922C9B180DC0B21458F4C2
S1130C70B60180E290E076D0B394F8CFB21418F4C1
S1130C802B1802C0982C212CA4FE0FC0B60180E3BF
S1130C9090E068D0A2FE16C0A1FC03C088E790E0F3
S1130CA002C088E590E0B6010CC08A2D867851F028
S1130CB0A1FE02C08BE201C080E2A7FC8DE2B60176
S1130CC090E050D0891430F4B60180E390E04AD02B
S1130CD09A94F8CF8A94F301E80DF11D8081B6014E
S1130CE090E040D08110F6CF222009F44ECEB60118
S1130CF080E290E037D02A94F7CFF601868197817D
S1130D0002C08FEF9FEF2B960FB6F894DEBF0FBE95
S1130D10CDBFDF91CF911F910F91FF90EF90DF90A6
S1130D20CF90BF90AF909F908F907F906F905F9087
S1130D304F903F902F900895FC01059061507040B2
S1130D400110D8F7809590958E0F9F1F0895FC0190
S1130D506150704001900110D8F7809590958E0FE6
S1130D609F1F08950F931F93CF93DF93FB0123815C
S1130D7021FD03C08FEF9FEF2CC022FF16C04681D8
S1130D805781248135814217530744F4A081B181EE
S1130D909D012F5F3F4F318320838C9326813781C0
S1130DA02F5F3F4F3783268314C08B01EC01FB0177
S1130DB00084F185E02D0995892BE1F6D80116967A
S1130DC08D919C911797019617969C938E931697E5
S1130DD0CE01DF91CF911F910F910895FA01AA27B7
S1130DE0283051F1203181F1E8946F936E7F6E5F6A
S1130DF07F4F8F4F9F4FAF4FB1E03ED0B4E03CD018
S1130E00670F781F891F9A1FA11D680F791F8A1FFA
S1130E10911DA11D6A0F711D811D911DA11D20D061
S1130E2009F468943F912AE0269F11243019305D1B
S1130E303193DEF6CF010895462F4770405D41930C
S1130E40B3E00FD0C9F7F6CF462F4F70405D4A3359
S1130E5018F0495D31FD4052419302D0A9F7EACF21
S1130E60B4E0A6959795879577956795BA95C9F750
S1130E7000976105710508959B01AC010A2E069443
S1130E805795479537952795BA95C9F7620F731FFC
S10F0E90841F951FA01D0895F894FFCF47
S1130E9C010101010101010101010101010104012F
S1130EAC00000003000000004803570300004465E1
S1130EBC6D6F2054582070726F6772616D2072755B
S1130ECC6E6E696E67206F6E206E6F6465202530C0
S1130EDC34780A0D005265717565737420627569F6
S1130EEC6C7420617420256C753A2025303278207E
S1130EFC25303278202532780A0D005265717565DB
S1130F0C737420656E63727970746564203A00257D
S1130F1C3032782000526571756573742073656E78
S1130F2C7420746F207265636569766572203A2546
S1070F3C30347800D1
S9030000FC
